:1000000015C1000036C6000009C60000DCC50000AE
:10001000AFC5000082C5000055C5000028C500001E
:10002000FBC4000033C1000031C100002FC100003B
:100030002DC100002BC1000029C1000027C1000014
:1000400025C10000C8C6000021C100001FC100007A
:100050001DC100001BC1000019C1000093C40000B5
:1000600015C1000059C400002EC400000FC10000DB
:100070000DC100000BC1000009C1000007C1000054
:100080007DC6000003C1000001C10000FFC00000E8
:10009000FDC00000FBC00000F9C00000C9C60000A0
:1000A000F5C00000F3C000003CC60000EFC0000037
:1000B000EDC00000EBC00000E9C0000005C6000074
:1000C000E5C00000E3C00000E1C00000DFC00000A8
:1000D000DDC00000DBC00000D9C00000D7C00000B8
:1000E000D5C0000098029B028A028E029202D202C0
:1000F0009F02A302A902AD02B102B702BB02BF0276
:10010000D202C502C902CD0200000A0B02090C0D81
:100110000E080703040100000000000000000000BA
:1001200000000000000000000000000000000000CF
:10013000000000001211100000000000000000008C
:1001400000000000000000000000000000000000AF
:100150002100240027002A002D0030003300010177
:100160000000040107010A0100002000230026000E
:1001700029002C002F0032000001000003010601BD
:10018000090100002200250028002B002E0031006C
:10019000340002010000050108010B0105050505F9
:1001A000070508080808020202020A0A08080404EF
:1001B000040401010101010101010303030303031D
:1001C0000303040707070C0C0C0C0C0C0C0C0202AC
:1001D000020206060606060606060B0B0B0B0B0BA9
:1001E0000B0B010210202008081020401020408036
:1001F00002010201080402010102040810204080EB
:100200008040201008040201800402018040201078
:1002100008040201080402010102040810204080C1
:1002200001020408102040804908EE0911241FBE75
:10023000CFEFD1E2DEBFCDBF00E00CBF24E0A8E4E9
:10024000B2E001C01D92A533B207E1F712E0A0E0D1
:10025000B2E0EEEDF6E100E00BBF02C007900D92B8
:10026000A834B107D9F711E0C5E1D1E000E006C03C
:1002700021970109802FFE010E94030AC431D10792
:1002800080E00807A9F75AD70C945E0BB9CE089501
:10029000CF92DF92EF92FF920F931F93CF93DF9352
:1002A0006C017A018B01C0E0D0E0CE15DF0589F04A
:1002B000D8016D918D01D601ED91FC910190F081F5
:1002C000E02DC6011995892B11F47E0102C02196FB
:1002D000ECCFC701DF91CF911F910F91FF90EF906D
:1002E000DF90CF900895FC01918D828D981761F079
:1002F000828DDF01A80FB11D5D968C91928D9F5F5D
:100300009F73928F90E008958FEF9FEF0895FC0107
:10031000918D828D981731F0828DE80FF11D858DBA
:1003200090E008958FEF9FEF0895FC01918D228D4D
:10033000892F90E0805C9F4F821B91098F739927D2
:10034000089584E793E0F1DF21E0892B09F420E0B0
:10035000822F0895FC01848DDF01A80FB11DA35ADF
:10036000BF4F2C91848D90E001968F739927848FD5
:10037000A689B7892C93A089B1898C9180648C93CC
:10038000938D848D981306C00288F389E02D8081B7
:100390008F7D80830895EF92FF920F931F93CF93E9
:1003A000DF93EC0181E0888F9B8D8C8D981305C0C5
:1003B000E889F989808185FD23C0F62E0B8D10E038
:1003C0000F5F1F4F0F731127E02E8C8DE8120BC0AB
:1003D0000FB607FCFACFE889F989808185FFF5CF50
:1003E000CE01B8DFF2CF8B8DFE01E80FF11DE35A8D
:1003F000FF4FF0820B8FEA89FB898081806207C002
:10040000EE89FF896083E889F9898081806480832F
:1004100081E090E0DF91CF911F910F91FF90EF90DD
:100420000895CF93DF93EC01888D8823C1F0EA898A
:10043000FB89808185FD05C0A889B9898C9186FDDD
:100440000EC00FB607FCF5CF808185FFF2CFA889DB
:10045000B9898C9185FFEDCFCE017CDFE8CFDF91AC
:10046000CF91089580E090E0892B19F06ADF811127
:1004700025C080E090E0892B41F080E090E0892B5E
:1004800021F00E94000081111CC080E090E0892BC7
:1004900041F080E090E0892B21F00E940000811162
:1004A00013C080E090E0892BA1F080E090E0892BE0
:1004B00081F00E94000081110AC008950E9400008E
:1004C000D8CF0E940000E1CF0E940000EACF0C9438
:1004D00000000895362F90E0FC01E85FFE4F449144
:1004E000FC01EE51FE4F2491FC01E456FE4F949125
:1004F000992309F46AC0442309F454C050E0FA0176
:100500003197E231F10508F04DC08827EE58FF4FD2
:100510008F4F79C7809180008F7707C080918000CE
:100520008F7D03C080918000877F809380003AC0D8
:1005300084B58F7702C084B58F7D84BD33C0809130
:10054000B0008F7703C08091B0008F7D8093B000A2
:1005500029C0809190008F7707C0809190008F7D97
:1005600003C080919000877F809390001BC0809192
:10057000A0008F7707C08091A0008F7D03C080917D
:10058000A000877F8093A0000DC0809120018F770D
:1005900007C0809120018F7D03C080912001877F5B
:1005A00080932001E92FF0E0EE0FFF1FEE57FE4F82
:1005B000A591B4918FB7F894EC91311103C02095B7
:1005C0002E2301C02E2B2C938FBF08953FB7F89494
:1005D0008091700390917103A0917203B0917303A5
:1005E00026B5A89B05C02F3F19F00196A11DB11D8E
:1005F0003FBFBA2FA92F982F8827820F911DA11DC9
:10060000B11DBC01CD0142E0660F771F881F991F05
:100610004A95D1F708950895CF93DF93DB01EA015E
:10062000FC01E959FC4F208127FF04C011961C9260
:100630001E920DC040815CE0589F9001599F300D83
:100640001124240F311D47FD3A9537FD208120816B
:100650002F5F20834CE0489F9001499F300D11246B
:100660008081A901480F511D87FD5A9557FF1EC073
:1006700080818C30DCF44D915C918081B901680FF0
:10068000711D87FD7A95CB01DB01AA0FBB1F8A0F75
:100690009B1FDC01A952BD4F11968D919C91129721
:1006A000840F951F99838883808111C08D919C91BF
:1006B0001197049680349C4918F480E49CE903C0A7
:1006C0008D919C910496998388838FEF8083DF912D
:1006D000CF91089585ED8093BC008091BC0084FD8E
:1006E000FCCF1092B102089540918B02262F30E08A
:1006F000240F311D21323105DCF42091B102243068
:10070000C9F4FC0180E090E0861758F430918B0228
:100710002191DC01A759BD4FA30FB11D2C93019668
:10072000F3CF80918B02680F60938B0280E0089575
:1007300081E0089582E0089508958FEF9FEF089576
:100740008FEF9FEF08958091680290E091958195D9
:1007500091090895CF93DF931F921F92CDB7DEB713
:10076000CB01642F49835A83BFDF4981842F5A818B
:10077000952F0F900F90DF91CF910895CF93DF9336
:100780001F92CDB7DEB7698361E0CE010196ACDF81
:1007900081E090E00F90DF91CF9108950F931F9328
:1007A000CF93DF93EC01EE81FF8190818C81809566
:1007B000892380838BE090E00197F1F7EE81FF8140
:1007C00090818C81892B808383E290E00197F1F7FF
:1007D000EE81FF8190818C81809589238083F6DE74
:1007E000DC01CB018855994EAF4FBF4F8E879F8755
:1007F000A88BB98BEA85FB8590818D81892351F087
:10080000E5DE0E851F852889398906171707280711
:10081000390780F7EA85FB8590818D81892369F40A
:10082000D5DE0E851F852889398906171707280701
:10083000390780F760E070E02DC0C8DE2C853D856B
:10084000DC01CB01820F931FA11DB11D8E879F87F5
:10085000A88BB98BEA85FB8590818D81892379F0FE
:10086000B5DE0E851F8528893989061717072807E1
:10087000390780F760E070E020E030E013C0A6DECA
:100880002C853D85255031094E855F85241B350B10
:10089000620F731F91E080E06115710509F490E02B
:1008A000292F382FCB014C9669E370E098D5CB0106
:1008B0006217730708F4C901DF91CF911F910F915F
:1008C0000895D6D63DC61F920F920FB60F921124EF
:1008D0000BB60F922F933F934F935F936F937F933A
:1008E0008F939F93AF93BF93EF93FF9384E793E02E
:1008F00031DDFF91EF91BF91AF919F918F917F91EA
:100900006F915F914F913F912F910F900BBE0F9080
:100910000FBE0F901F9018951F920F920FB60F9257
:1009200011240BB60F922F938F939F93EF93FF9306
:10093000E0918403F09185038081E0918A03F09136
:100940008B0382FD12C0908180918D038F5F8F7326
:1009500020918E03821751F0E0918D03F0E0EC5866
:10096000FC4F958F80938D0301C08081FF91EF91A3
:100970009F918F912F910F900BBE0F900FBE0F90F4
:100980001F9018951F920F920FB60F9211242F935C
:100990003F938F939F93AF93BF9380916C039091FC
:1009A0006D03A0916E03B0916F0330916B0323E050
:1009B000230F2D3720F40196A11DB11D05C026E897
:1009C000230F0296A11DB11D20936B0380936C032E
:1009D00090936D03A0936E03B0936F0380917003A7
:1009E00090917103A0917203B09173030196A11DC0
:1009F000B11D8093700390937103A0937203B09321
:100A00007303BF91AF919F918F913F912F910F9061
:100A10000FBE0F901F9018951F920F920FB60F9256
:100A200011240BB60F922F933F934F935F936F93C5
:100A30007F938F939F93AF93BF93EF93FF93E09137
:100A40000E02F0910F021995FF91EF91BF91AF91B6
:100A50009F918F917F916F915F914F913F912F91D6
:100A60000F900BBE0F900FBE0F901F9018951F9206
:100A70000F920FB60F9211240BB60F922F933F9344
:100A80004F935F936F937F938F939F93AF93BF9396
:100A9000EF93FF93E0910C02F0910D021995FF91F5
:100AA000EF91BF91AF919F918F917F916F915F91E6
:100AB0004F913F912F910F900BBE0F900FBE0F9053
:100AC0001F9018951F920F920FB60F9211240BB61C
:100AD0000F922F933F934F935F936F937F938F93D7
:100AE0009F93AF93BF93EF93FF93E0910202F09136
:100AF00003021995FF91EF91BF91AF919F918F9153
:100B00007F916F915F914F913F912F910F900BBE0D
:100B10000F900FBE0F901F9018951F920F920FB657
:100B20000F9211240BB60F922F933F934F935F9325
:100B30006F937F938F939F93AF93BF93EF93FF93A5
:100B4000E0910002F09101021995FF91EF91BF91A0
:100B5000AF919F918F917F916F915F914F913F9155
:100B60002F910F900BBE0F900FBE0F901F901895F6
:100B70001F920F920FB60F9211240BB60F922F9364
:100B80003F934F935F936F937F938F939F93AF9315
:100B9000BF93EF93FF93E0910A02F0910B02199536
:100BA000FF91EF91BF91AF919F918F917F916F9145
:100BB0005F914F913F912F910F900BBE0F900FBE01
:100BC0000F901F9018951F920F920FB60F9211243D
:100BD0000BB60F922F933F934F935F936F937F9337
:100BE0008F939F93AF93BF93EF93FF93E09108028E
:100BF000F09109021995FF91EF91BF91AF919F91EB
:100C00008F917F916F915F914F913F912F910F90B5
:100C10000BBE0F900FBE0F901F9018951F920F9252
:100C20000FB60F9211240BB60F922F933F934F9351
:100C30005F936F937F938F939F93AF93BF93EF9344
:100C4000FF93E0910602F09107021995FF91EF9151
:100C5000BF91AF919F918F917F916F915F914F91D4
:100C60003F912F910F900BBE0F900FBE0F901F90D2
:100C700018951F920F920FB60F9211240BB60F9278
:100C80002F933F934F935F936F937F938F939F9394
:100C9000AF93BF93EF93FF93E0910402F0910502AD
:100CA0001995FF91EF91BF91AF919F918F917F9196
:100CB0006F915F914F913F912F910F900BBE0F90CD
:100CC0000FBE0F901F9018951F920F920FB60F92A4
:100CD00011240BB60F922F933F934F935F936F9313
:100CE0007F938F939F93AF93BF93EF93FF9348E2CC
:100CF00051E064E271E080E090E08EDCFF91EF91E2
:100D0000BF91AF919F918F917F916F915F914F9123
:100D10003F912F910F900BBE0F900FBE0F901F9021
:100D200018951F920F920FB60F9211240BB60F92C7
:100D30002F933F934F935F936F937F938F939F93E3
:100D4000AF93BF93EF93FF9348EA50E064EA70E0FB
:100D500083E090E061DCFF91EF91BF91AF919F91B3
:100D60008F917F916F915F914F913F912F910F9054
:100D70000BBE0F900FBE0F901F9018951F920F92F1
:100D80000FB60F9211240BB60F922F933F934F93F0
:100D90005F936F937F938F939F93AF93BF93EF93E3
:100DA000FF9348E950E064E970E082E090E034DCD1
:100DB000FF91EF91BF91AF919F918F917F916F9133
:100DC0005F914F913F912F910F900BBE0F900FBEEF
:100DD0000F901F9018951F920F920FB60F9211242B
:100DE0000BB60F922F933F934F935F936F937F9325
:100DF0008F939F93AF93BF93EF93FF9348E850E097
:100E000064E870E081E090E007DCFF91EF91BF9132
:100E1000AF919F918F917F916F915F914F913F9192
:100E20002F910F900BBE0F900FBE0F901F90189533
:100E30001F920F920FB60F9211240BB60F922F93A1
:100E40003F934F935F936F937F938F939F93AF9352
:100E5000BF93EF93FF938091B900887F803609F4A8
:100E60009CC068F5883209F45BC090F4803109F4C5
:100E700054C038F4882309F4F6C0883009F44DC012
:100E8000F5C0883109F44CC0803209F45DC0EEC071
:100E9000803409F468C048F4803309F455C08833BD
:100EA00009F0E4C08093B002D8C0803509F44FC087
:100EB000883509F45DC0883409F0D8C0D6C08839B7
:100EC00009F4C7C0A8F4883709F467C038F4883635
:100ED00009F463C0803709F460C0C8C0883809F4D9
:100EE000B8C0803909F45FC0803809F0BFC05BC06A
:100EF000803B09F486C038F4803A09F466C0883A29
:100F000009F47FC0B3C0803C09F4A7C0883C09F451
:100F1000A4C0883B09F48AC0A9C08091D60210C041
:100F20009091D5028091D402981770F5E091D50286
:100F300081E08E0F8093D502F0E0EC54FD4F80816C
:100F40008093BB0085EC86C08093B0028EC0E09198
:100F5000D50281E08E0F8093D5028091BB00F0E036
:100F6000EC54FD4F80839091D5028091D4026EC0E5
:100F7000E091D50281E08E0F8093D5028091BB0075
:100F8000F0E0EC54FD4F80838091B30281116DC07D
:100F900081E08093B20284EA61C083E08093B10271
:100FA0001092AF02CFCF8091AF02803208F051C0D3
:100FB000E091AF0281E08E0F8093AF028091BB0081
:100FC000F0E0E157FD4F8083BDCF85EC8093BC00FE
:100FD0001092B1028091AF02803230F4E091AF0202
:100FE000F0E0E157FD4F10826091AF0270E0E091B8
:100FF0008D02F0918E028FE892E019951092AF0267
:1010000035C084E08093B10210928C0210928B0262
:10101000E0918902F0918A02199580918B028111E9
:1010200005C081E080938B0210926902E0918C02EE
:1010300081E08E0F80938C02F0E0E759FD4F8081B4
:101040008093BB0090918C0280918B02981708F4DA
:1010500079CF85E88093BC0009C085EC8093BC0003
:101060001092B10203C01092B00234DBFF91EF91F5
:10107000BF91AF919F918F917F916F915F914F91B0
:101080003F912F910F900BBE0F900FBE0F901F90AE
:101090001895E4E7F3E01382128288EE93E0A0E073
:1010A000B0E084839583A683B7832EE132E0318359
:1010B000208325EC30E03587248724EC30E0378727
:1010C000268720EC30E0318B208B21EC30E0338B15
:1010D000228B22EC30E0358B248B26EC30E0378BF2
:1010E000268B118E128E138E148EE1E1F4E01382A2
:1010F000128284839583A683B7838EE292E09183E4
:101100008083EDE1F4E08EE392E09183808388E0D8
:1011100090E09383828386E490E0938B828B1482A9
:1011200015821782168211861086138612861586FE
:10113000148616861786108A118A0895CF93DF9336
:10114000CDB7DEB7A1970FB6F894DEBF0FBECDBF07
:10115000789484B5826084BD84B5816084BD85B592
:10116000826085BD85B5816085BD80916E0081609E
:1011700080936E0010928100809181008260809344
:101180008100809181008160809381008091800046
:101190008160809380008091B10084608093B10071
:1011A0008091B00081608093B00080919100826056
:1011B0008093910080919100816080939100809153
:1011C00090008160809390008091A1008260809364
:1011D000A1008091A10081608093A1008091A00076
:1011E00081608093A0008091210182608093210121
:1011F0008091210181608093210180912001816093
:101200008093200180917A00846080937A0080919D
:101210007A00826080937A0080917A008160809366
:101220007A0080917A00806880937A001092C100E1
:10123000E0918403F091850382E08083E091800354
:10124000F09181031082E0918203F09183038FEC8F
:10125000808310928C03E0918803F091890386E0EB
:101260008083E0918603F091870380818061808391
:10127000E0918603F0918703808188608083E0910C
:101280008603F0918703808180688083E0918603E4
:10129000F091870380818F7D8083E8EEF1E02491D7
:1012A00020932104E7EEF1E0E491E093220482EA46
:1012B00091E0FC013491E32FF0E0EE0FFF1FEE57B9
:1012C000FE4F459154915093240440932304E1EA46
:1012D000F1E0E491F0E0EE0FFF1FE859FE4F459179
:1012E00054915093280440932704FC018491E82FE3
:1012F000F0E0EE0FFF1FE25BFE4FA591B491B093BB
:101300002604A093250440912F045091300439E322
:10131000349FC001359F900D11244C9690932A0460
:1013200080932904EC912E2B2C936AE0C62ED12CAD
:10133000E12CF12C8DE194E031DA9C0140E050E0A9
:1013400019A28E010F5D1F4FCA01B901A7019601B5
:1013500093D1605DF80162938F012115310541053C
:10136000510591F7309761F001900020E9F731972E
:10137000AF01401B510BB80184E793E00E94480184
:1013800042E050E064E472E084E793E00E944801A8
:101390001DD92B013C0184E6882E912CA12CB12C67
:1013A00015D9DC01CB0184199509A609B709883E36
:1013B0009340A105B10558F0F1E08F1A9108A108FA
:1013C000B10828EE420E23E0521E611C711C8114EC
:1013D0009104A104B10421F745D8ACCF0895AA1B0C
:1013E000BB1B51E107C0AA1FBB1FA617B70710F010
:1013F000A61BB70B881F991F5A95A9F78095909542
:10140000BC01CD010895EE0FFF1F881F8BBF079011
:10141000F691E02D1994CF93DF938230910510F46B
:1014200082E090E0E0913304F091340420E030E079
:10143000C0E0D0E0309711F1408151814817590741
:10144000C0F04817590761F482819381209719F001
:101450009B838A832BC0909334048093330426C0EB
:101460002115310519F04217530718F49A01BE01EE
:10147000DF01EF010280F381E02DDCCF2115310582
:1014800009F1281B390B2430310590F412968D9107
:101490009C9113976115710521F0FB019383828361
:1014A00004C09093340480933304FD01329644C009
:1014B000FD01E20FF31F81939193225031092D9387
:1014C0003C933AC02091310430913204232B41F4F3
:1014D0002091120230911302309332042093310490
:1014E00020911002309111022115310541F42DB7E0
:1014F0003EB74091140250911502241B350BE09128
:101500003104F0913204E217F307A0F42E1B3F0BD5
:101510002817390778F0AC014E5F5F4F2417350765
:1015200048F04E0F5F1F5093320440933104819373
:10153000919302C0E0E0F0E0CF01DF91CF910895F8
:101540000F931F93CF93DF93009709F48CC0FC0196
:1015500032971382128200913304109134040115E2
:10156000110581F420813181820F931F2091310474
:10157000309132042817390779F5F0933204E0935B
:10158000310471C0D80140E050E0AE17BF0750F4FD
:1015900012962D913C911397AD012115310509F15A
:1015A000D901F3CF9D01DA013383228360817181F8
:1015B000860F971F8217930769F4EC012881398100
:1015C000260F371F2E5F3F4F318320838A819B81F7
:1015D00093838283452B29F4F0933404E0933304FE
:1015E00042C01396FC93EE931297ED0149915991E5
:1015F0009E01240F351FE217F30771F4808191815A
:10160000840F951F029611969C938E9382819381ED
:1016100013969C938E931297E0E0F0E0D801129617
:101620008D919C911397009719F0F8018C01F6CFDA
:101630008D919C9198012E5F3F4F820F931F2091B7
:101640003104309132042817390769F4309729F4AE
:10165000109234041092330402C013821282109349
:10166000320400933104DF91CF911F910F910895BF
:1016700081E090E0F89422C0A1E21A2EAA1BBB1BC5
:10168000FD010DC0AA1FBB1FEE1FFF1FA217B3074E
:10169000E407F50720F0A21BB30BE40BF50B661F64
:1016A000771F881F991F1A9469F760957095809528
:1016B00090959B01AC01BD01CF01089511E0C5E1FA
:1016C000D1E000E005C0802FFE019DDE2196011DC6
:0E16D000C631D10780E00807B1F7F894FFCFCC
:1016DE000B030B030B030B030B030B030B030B038C
:1016EE000000350480000100000000000000CB0166
:1016FE004801950173018701110200000000BE032D
:10170E00AA03A303A0039D039C030000000047014E
:08171E006204CE030D0A000075
:00000001FF
